:060000000A128A11142906
:10000800F008030EF1080B190E20710E8300F00E94
:10001800700E0900031383123D3081000B11A20AF0
:0E00280022080A3C031D1A28A201850A0800BE
:100200008A010A140F3982073F3406345B344F34B5
:1002100066346D347D3407347F34673477347C340E
:1002200039345E347934713433211B2122212F215A
:10023000031383121A29031383160F178F160F1235
:100240000F14080003138316811281110115811404
:100250000114031383123D3081000B1108008B172A
:100260008B160B11080003178316880189010313ED
:1002700083168501870106148614880189010313FA
:0C028000831286018501870188010800B7
:04400E00C420FF3F8C
:00000001FF
