:060000000A128A11142906
:10000800F008030EF1080B1910200B182520710EAB
:100018008300F00E700E0900031383123D30810037
:100028000B11A20A2208143C031D2428A201850AE8
:10003800A00A20080A3C031D2428A10AA0010800E0
:10004800080003138312061CA30A861FA3030B10C0
:0200580008009E
:100200008A010A140F3982073F3406345B344F34B5
:1002100066346D347D3407347F34673477347C340E
:1002200039345E3479347134452122212921322137
:100230003F21031383122008002187002108002199
:1002400088001B29031383160F178F160F120F1424
:100250000800031383161614961703138312060857
:100260000B100800031383168112811101158114EC
:100270000114031383123D3081000B1108008B170A
:100280008B160B158B110B100800031783168801B2
:1002900089010313831685018701061486178801D7
:1002A00081131514951703138312860185018701A5
:0C02B0008801A101A001A201A301080027
:04400E00C420FF3F8C
:00000001FF
