:060000000A128A11142906
:10000800F008030EF1080B1910200B181E20710EB2
:100018008300F00E700E0900031383123D30810037
:100028000B11A20A2208143C031D1D28A201870AED
:100038000800080003138312061C850A861F85031F
:040048000B10080091
:100200008A010A140F3982073F3406345B344F34B5
:1002100066346D347D3407347F34673477347C340E
:1002200039345E34793471343F211C2123212C214F
:100230003921031383121B29031383160F178F16FB
:100240000F120F14080003138316161496170313C6
:10025000831206080B100800031383168112811104
:10026000011581140114031383123D3081000B1119
:1002700008008B178B160B118B150B140800031736
:1002800083168801890103138316850187010614EB
:10029000861788018901811315149517031383129A
:0A02A000860185018701880108002E
:04400E00C420FF3F8C
:00000001FF
